:100B68003031323334353637383939383736353429
:0E0B7800333231304142434445464748494AF2
:100B4800E4FDFCC3ED9FEC9E5015E4FBFA0BBB00E3
:0F0B5800010AEB64784A70F50DBD00010C80E4D2
:010B6700226B
:100B8600C290C291C292C2A0C2A1C2A2C2B0C2B158
:030B9600C2B222C6
:020AA300A907A1
:100AA500E4FBFAC374079BFF7E007401A807088066
:100AB50005C333CE33CED8F9FFE9FDEF5D24FF92B0
:100AC50090D291C2910BBB00010AEB64084A70D326
:040AD500D292C29265
:010AD90022FA
:020ADA00A9076A
:100ADC00E4FBFAC374079BFF7E007401A80708802F
:100AEC0005C333CE33CED8F9FFE9FDEF5D24FF9279
:100AFC00A0D2A1C2A10BBB00010AEB64084A70D3BF
:040B0C00D2A2C2A20D
:010B100022C2
:020B1100A90732
:100B1300E4FBFAC374079BFF7E007401A8070880F7
:100B230005C333CE33CED8F9FFE9FDEF5D24FF9241
:100B3300B0D2B1C2B10BBB00010AEB64084A70D357
:040B4300D2B2C2B2B6
:010B4700228B
:10097700EE705CEF24D0B40A00505490099075F0E3
:1009870003A4C58325F0C583730209AE0209B20229
:1009970009B60209BA0209BE0209C20209C602095A
:1009A700CA0209CE0209D27FC080267FF980227F42
:1009B700A4801E7FB0801A7F9980167F9280127F55
:1009C70082800E7FF8800A7F8080067F908002E415
:0509D700FF120ADA2204
:1009DC00EE705CEF24D0B40A0050549009F575F019
:1009EC0003A4C58325F0C58373020A13020A1702F8
:1009FC000A1B020A1F020A23020A27020A2B020AF6
:100A0C002F020A33020A377FC080267FF980227FAB
:100A1C00A4801E7FB0801A7F9980167F9280127FEF
:100A2C0082800E7FF8800A7F8080067F908002E4AF
:050A3C00FF120AA322D5
:100A4100EF24BFB40A005054900A5775F003A4C5AF
:100A51008325F0C58373020A75020A79020A7D02B1
:100A61000A81020A85020A89020A8D020A91020A92
:100A710095020A997F8880267F8080227FC6801E0A
:100A81007FC0801A7F8680167F8E80127F82800EC3
:100A91007F89800A7FF980067FF08002E4FF120BD4
:020AA100112220
:0308F600120B865C
:1008F90078087C007D007BFF7A0B79687E007F0A8F
:100909001208D078127C007D007BFF7A0B79727E09
:10091900007F0A1208D0781C7C007D007BFF7A0BCF
:10092900797C7E007F0A1208D0E4F526F527740841
:100939002527F8E6FF3395E0FE1209DC7412252716
:10094900F8E6FF3395E0FE120977741C2527F8E6CF
:10095900FF120A417F8A7E02120B480527E527709C
:0E096900020526C3940AE526940040C280824F
:03000000020B9957
:0C0B9900787FE4F6D8FD7581270208F68D
:10080000E709F608DFFA8046E709F208DFFA803EDA
:1008100088828C83E709F0A3DFFA8032E309F608C7
:10082000DFFA8078E309F208DFFA807088828C832F
:10083000E309F0A3DFFA806489828A83E0A3F608E3
:10084000DFFA805889828A83E0A3F208DFFA804CBD
:1008500080D280FA80C680D4806980F28033801094
:1008600080A680EA809A80A880DA80E280CA8033FD
:1008700089828A83ECFAE493A3C8C582C8CCC58375
:10088000CCF0A3C8C582C8CCC583CCDFE9DEE78045
:100890000D89828A83E493A3F608DFF9ECFAA9F0C4
:1008A000EDFB2289828A83ECFAE0A3C8C582C8CC1A
:1008B000C583CCF0A3C8C582C8CCC583CCDFEADE33
:1008C000E880DB89828A83E493A3F208DFF980CC95
:1008D00088F0EF60010E4E60C388F0ED2402B4048E
:1008E0000050B9F582EB2402B4040050AF23234535
:0608F00082239008507302
:00000001FF
